:20C00000B240805A2001E2D22200E2D22100E2C221003C40C800B01228C0E2D221003C4084
:20C02000C800B01228C0F33F0C9309240D123D4061001D83FE233D41003C1C83F7233041EE
:20C0400031400004B01262C00C43B01200C01C43B0125CC032D01000FD3F03430343FF3F61
:06C0600003431C433041C4
:02FFDE00FFFF23
:02FFE00054C00B
:02FFE40054C007
:02FFE60054C005
:02FFEA0054C001
:02FFEC0054C0FF
:02FFEE0054C0FD
:02FFF00054C0FB
:02FFF20054C0F9
:02FFF40054C0F7
:02FFF60054C0F5
:02FFF80054C0F3
:02FFFA0054C0F1
:02FFFC0054C0EF
:02FFFE0040C001
:00000001FF
